:020000040800F2
:10000000000002203D2F0008891700088B17000808
:100010008D1700088F1700089117000800000000D6
:10002000000000000000000000000000931700081E
:10003000951700080000000097170008991700089E
:100040008D2F00088D2F00088D2F00088D2F0008A0
:100050008D2F00088D2F00088D2F00088D2F000890
:100060008D2F00088D2F00088D2F00088D2F000880
:100070008D2F00088D2F00088D2F00088D2F000870
:100080008D2F00088D2F00088D2F00088D2F000860
:100090008D2F00088D2F00088D2F00088D2F000850
:1000A000A1170008B1170008C1170008D1170008F0
:1000B000E1170008F1170008011800088D2F00084B
:1000C0008D2F00088D2F00088D2F00088D2F000820
:1000D0008D2F00088D2F0008111800088D2F0008A3
:1000E0008D2F00088D2F00088D2F00088D2F000800
:1000F000211800088D2F00088D2F00088D2F000873
:100100008D2F00088D2F00088D2F00088D2F0008DF
:100110008D2F00088D2F00088D2F00088D2F0008CF
:100120008D2F00088D2F00088D2F00088D2F0008BF
:100130008D2F00088D2F00088D2F00088D2F0008AF
:100140008D2F00088D2F00088D2F00088D2F00089F
:100150008D2F00088D2F00088D2F00088D2F00088F
:100160008D2F00088D2F00088D2F00088D2F00087F
:100170008D2F00088D2F00088D2F00080000000033
:080180008D2F00088D2F0008EF
:1001900010B5054C237833B9044B13B10448AFF3C1
:1001A00000800123237010BD3802002000000000F1
:1001B000B45E000808B5034B1BB103490348AFF315
:1001C000008008BD000000003C020020B45E000872
:1001D000034613F8012B002AFBD1181A0138704787
:1001E00001F0FF01102A2BDB10F0070F08D010F8E8
:1001F000013B013A8B422DD010F0070F42B3F6D1EC
:10020000F0B441EA012141EA014122F007047FF004
:1002100000070023F0E80256083C85EA010586EA5B
:10022000010685FA47F5A3FA87F586FA47F6A5FA97
:1002300087F68EB9EED1F0BC01F0FF0102F00702A3
:1002400032B110F8013B013A83EA010313B1F8D14E
:100250000020704701387047002D06BF354603382F
:10026000073815F0010F07D1013015F4807F02BF68
:10027000013015F4C03F0130F0BC0138704700BFB9
:1002800081F0004102E000BF83F0004330B54FEA47
:1002900041044FEA430594EA050F08BF90EA020FB4
:1002A0001FBF54EA000C55EA020C7FEA645C7FEA47
:1002B000655C00F0E2804FEA5454D4EB5555B8BF6A
:1002C0006D420CDD2C4480EA020281EA030382EADB
:1002D000000083EA010180EA020281EA0303362D6D
:1002E00088BF30BD11F0004F4FEA01314FF4801C40
:1002F0004CEA113102D0404261EB410113F0004F52
:100300004FEA03334CEA133302D0524263EB430308
:1003100094EA050F00F0A780A4F10104D5F1200EA6
:100320000DDB02FA0EFC22FA05F2801841F1000101
:1003300003FA0EF2801843FA05F359410EE0A5F1D5
:1003400020050EF1200E012A03FA0EFC28BF4CF006
:10035000020C43FA05F3C01851EBE37101F00045BC
:1003600007D54FF0000EDCF1000C7EEB00006EEBC9
:100370000101B1F5801F1BD3B1F5001F0CD3490853
:100380005FEA30004FEA3C0C04F101044FEA4452AA
:1003900012F5800F80F09A80BCF1004F08BF5FEA31
:1003A000500C50F1000041EB045141EA050130BD11
:1003B0005FEA4C0C404141EB0101013C28BFB1F523
:1003C000801FE9D291F0000F04BF01460020B1FA6E
:1003D00081F308BF2033A3F10B03B3F120020CDA41
:1003E0000C3208DD02F1140CC2F10C0201FA0CF01F
:1003F00021FA02F10CE002F11402D8BFC2F1200C84
:1004000001FA02F120FA0CFCDCBF41EA0C01904039
:10041000E41AA2BF01EB0451294330BD6FEA040482
:100420001F3C1CDA0C340EDC04F11404C4F120026D
:1004300020FA04F001FA02F340EA030021FA04F37F
:1004400045EA030130BDC4F10C04C4F1200220FAD6
:1004500002F001FA04F340EA0300294630BD21FA14
:1004600004F0294630BD94F0000F83F4801306BFDA
:1004700081F480110134013D4EE77FEA645C18BFCE
:100480007FEA655C29D094EA050F08BF90EA020F65
:1004900005D054EA000C04BF1946104630BD91EA5D
:1004A000030F1EBF0021002030BD5FEA545C05D160
:1004B0004000494128BF41F0004130BD14F580049F
:1004C0003CBF01F5801130BD01F0004545F0FE4113
:1004D00041F470014FF0000030BD7FEA645C1ABF48
:1004E000194610467FEA655C1CBF0B46024650EA7F
:1004F000013406BF52EA033591EA030F41F40021AB
:1005000030BD00BF90F0000F04BF0021704730B530
:100510004FF4806404F132044FF000054FF0000105
:1005200050E700BF90F0000F04BF0021704730B5C6
:100530004FF4806404F1320410F0004548BF40429B
:100540004FF000013EE700BF42004FEAE2014FEAF0
:1005500031014FEA02701FBF12F07F4393F07F4FCB
:1005600081F06051704732F07F4208BF704793F0CE
:100570007F4F04BF41F40021704730B54FF46074E1
:1005800001F0004521F000411CE700BF50EA0102E4
:1005900008BF704730B54FF000050AE050EA01028D
:1005A00008BF704730B511F0004502D5404261EBFD
:1005B00041014FF4806404F132045FEA915C3FF43E
:1005C000D8AE4FF003025FEADC0C18BF03325FEADB
:1005D000DC0C18BF033202EBDC02C2F1200300FA8C
:1005E00003FC20FA02F001FA03FE40EA0E0021FAB1
:1005F00002F11444BDE600BF70B54FF0FF0C4CF49F
:10060000E06C1CEA11541DBF1CEA135594EA0C0F50
:1006100095EA0C0F00F0DEF82C4481EA030621EA8B
:100620004C5123EA4C5350EA013518BF52EA0335C6
:1006300041F4801143F4801338D0A0FB02CE4FF078
:100640000005E1FB02E506F00042E0FB03E54FF0A8
:100650000006E1FB03569CF0000F18BF4EF0010EA0
:10066000A4F1FF04B6F5007F64F5407404D25FEA9C
:100670004E0E6D4146EB060642EAC62141EA55514F
:100680004FEAC52040EA5E504FEACE2EB4F1FD0C91
:1006900088BFBCF5E06F1ED8BEF1004F08BF5FEA0F
:1006A000500E50F1000041EB045170BD06F00046C1
:1006B00046EA010140EA020081EA0301B4EB5C046E
:1006C000C2BFD4EB0C0541EA045170BD41F4801166
:1006D0004FF0000E013C00F3AB8014F1360FDEBF8B
:1006E000002001F0004170BDC4F10004203C35DA67
:1006F0000C341BDC04F11404C4F1200500FA05F3EA
:1007000020FA04F001FA05F240EA020001F000428A
:1007100021F0004110EBD37021FA04F642EB060100
:100720005EEA430E08BF20EAD37070BDC4F10C042A
:10073000C4F1200500FA04F320FA05F001FA04F2EE
:1007400040EA020001F0004110EBD37041F10001DA
:100750005EEA430E08BF20EAD37070BDC4F12005E5
:1007600000FA05F24EEA020E20FA04F301FA05F24D
:1007700043EA020321FA04F001F0004121FA04F2F5
:1007800020EA020000EBD3705EEA430E08BF20EAC5
:10079000D37070BD94F0000F0FD101F000464000FF
:1007A00041EB010111F4801F08BF013CF7D041EA81
:1007B000060195F0000F18BF704703F00046520085
:1007C00043EB030313F4801F08BF013DF7D043EA56
:1007D0000603704794EA0C0F0CEA135518BF95EA0C
:1007E0000C0F0CD050EA410618BF52EA4306D1D193
:1007F00081EA030101F000414FF0000070BD50EAB2
:10080000410606BF1046194652EA430619D094EA3B
:100810000C0F02D150EA013613D195EA0C0F05D125
:1008200052EA03361CBF104619460AD181EA030179
:1008300001F0004141F0FE4141F470014FF0000031
:1008400070BD41F0FE4141F4780170BD70B54FF0CC
:10085000FF0C4CF4E06C1CEA11541DBF1CEA13554C
:1008600094EA0C0F95EA0C0F00F0A7F8A4EB05042E
:1008700081EA030E52EA03354FEA013100F0888025
:100880004FEA03334FF0805545EA131343EA1263EE
:100890004FEA022245EA111545EA10654FEA0026A3
:1008A0000EF000419D4208BF964244F1FD0404F55C
:1008B000407402D25B084FEA3202B61A65EB0305B8
:1008C0005B084FEA32024FF480104FF4002CB6EB75
:1008D000020E75EB030E22BFB61A754640EA0C00F5
:1008E0005B084FEA3202B6EB020E75EB030E22BF35
:1008F000B61A754640EA5C005B084FEA3202B6EB76
:10090000020E75EB030E22BFB61A754640EA9C0034
:100910005B084FEA3202B6EB020E75EB030E22BF04
:10092000B61A754640EADC0055EA060E18D04FEAC2
:10093000051545EA16754FEA06164FEAC30343EA62
:1009400052734FEAC2025FEA1C1CC0D111F4801F2F
:100950000BD141EA00014FF000004FF0004CB6E728
:1009600011F4801F04BF01430020B4F1FD0C88BFC7
:10097000BCF5E06F3FF6AFAEB5EB030C04BFB6EBD2
:10098000020C5FEA500C50F1000041EB045170BDC5
:100990000EF0004E4EEA113114EB5C04C2BFD4EBF2
:1009A0000C0541EA045170BD41F480114FF0000E76
:1009B000013C90E645EA060E8DE60CEA135594EAF2
:1009C0000C0F08BF95EA0C0F3FF43BAF94EA0C0FF5
:1009D0000AD150EA01347FF434AF95EA0C0F7FF46A
:1009E00025AF104619462CE795EA0C0F06D152EABE
:1009F00003353FF4FDAE1046194622E750EA4106A2
:100A000018BF52EA43067FF4C5AE50EA41047FF4B2
:100A10000DAF52EA43057FF4EBAE12E74FF0FF3C17
:100A200006E000BF4FF0010C02E000BF4FF0010CE8
:100A30004DF804CD4FEA410C7FEA6C5C4FEA430C61
:100A400018BF7FEA6C5C1BD001B050EA410C0CBFB0
:100A500052EA430C91EA030F02BF90EA020F002012
:100A6000704710F1000F91EA030F58BF994208BF79
:100A700090422CBFD8176FEAE37040F00100704736
:100A80004FEA410C7FEA6C5C02D150EA013C07D18D
:100A90004FEA430C7FEA6C5CD6D152EA033CD3D0D8
:100AA0005DF8040B704700BF8446104662468C46D2
:100AB0001946634600E000BF01B5FFF7B7FF002805
:100AC00048BF10F1000F01BD4DF808EDFFF7F4FF2E
:100AD0000CBF012000205DF808FB00BF4DF808EDB9
:100AE000FFF7EAFF34BF012000205DF808FB00BFDC
:100AF0004DF808EDFFF7E0FF94BF012000205DF8FE
:100B000008FB00BF4DF808EDFFF7CEFF94BF0120B2
:100B100000205DF808FB00BF4DF808EDFFF7C4FFAB
:100B200034BF012000205DF808FB00BF4FEA410CF4
:100B30007FEA6C5C02D150EA013C0AD14FEA430CD7
:100B40007FEA6C5C02D152EA033C02D14FF0000014
:100B500070474FF0010070474FEA410212F5001252
:100B600015D211D56FF47873B3EB625212D94FEAF4
:100B7000C12343F0004343EA505311F0004F23FADE
:100B800002F018BF404270474FF00000704750EA33
:100B9000013005D111F0004008BF6FF000407047F0
:100BA0004FF00000704700BF4FEA4102B2F1E0434E
:100BB00024BFB3F5001CDCF1FE5C0DD901F0004C44
:100BC0004FEAC0024CEA5070B2F1004F40EB830094
:100BD00008BF20F00100704711F0804F21D113F1C0
:100BE0003872BCBF01F00040704741F480114FEAF9
:100BF0005252C2F11802C2F1200C10FA0CF320FA82
:100C000002F018BF40F001004FEAC1234FEAD3239E
:100C100003FA0CFC40EA0C0023FA02F34FEA430308
:100C2000CCE77FEA625307D150EA01331EBF4FF091
:100C3000FE4040F44000704701F0004040F0FE40AC
:100C400040F40000704700BF53B94AB9002908BFFB
:100C500000281CBF4FF0FF314FF0FF3000F06EB99D
:100C6000ADF1080C6DE904CE00F006F8DDF804E003
:100C7000DDE9022304B070472DE9F047089D0446E2
:100C80008C46002B40F083808A42174647D9B2FA3F
:100C900082F242B1C2F1200024FA00F09140974064
:100CA00040EA010C94404FEA1748230CBCFBF8F6CD
:100CB0001FFA87FE08FB16C143EA014306FB0EF14B
:100CC000994209D9FB1806F1FF3080F01981994249
:100CD00040F21681023E3B445B1AA4B2B3FBF8F02B
:100CE00008FB103344EA034400FB0EFEA64509D975
:100CF0003C1900F1FF3380F00581A64540F20281E6
:100D000002383C4440EA0640A4EB0E0400261DB124
:100D1000D4400023C5E900433146BDE8F08702B95D
:100D2000FFDEB2FA82F2002A50D1CB1B4FEA174EF7
:100D30001FFA87F80126B3FBFEFC210C0EFB1C33C7
:100D400041EA034108FB0CF38B4207D979180CF1F7
:100D5000FF3002D28B4200F2E9808446C91AA3B266
:100D6000B1FBFEF00EFB101143EA014408FB00F852
:100D7000A04507D93C1900F1FF3302D2A04500F28B
:100D8000D9801846A4EB080440EA0C40BFE78B4228
:100D900009D9002D00F0B1800026C5E900013046D8
:100DA0003146BDE8F087B3FA83F6002E4AD18B4274
:100DB00002D3824200F2B880841A61EB0301012061
:100DC0008C46002DA8D0C5E9004CA5E7C2F1200350
:100DD00020FA03F6974001FA02F04FEA174ED94085
:100DE0003043030CB1FBFEF61FFA87F80EFB161119
:100DF00043EA014306FB08F1994204FA02F409D9D7
:100E0000FB1806F1FF3C80F08D80994240F28A8009
:100E1000023E3B445B1A81B2B3FBFEF00EFB103383
:100E200041EA034100FB08F38B4207D9791800F12E
:100E3000FF3C73D28B4271D902383944CB1A40EA55
:100E4000064678E7C6F1200C03FA06F422FA0CF302
:100E50001C4320FA0CF701FA06F34FEA144E21FA6C
:100E60000CF11F433B0CB1FBFEF91FFA84F80EFB9B
:100E7000191143EA014109FB08FA8A4502FA06F210
:100E800000FA06F308D9611809F1FF3048D28A4503
:100E900046D9A9F102092144A1EB0A01BFB2B1FB75
:100EA000FEF00EFB101147EA014700FB08F8B845B9
:100EB00007D9E71900F1FF312ED2B8452CD90238F5
:100EC000274440EA0940A7EB0807A0FB02894F45E9
:100ED000C64649461AD317D05DB1B3EB0E0267EB95
:100EE000010707FA0CFCF2404CEA0202F740C5E9A0
:100EF000002700263146BDE8F0872E4628460BE73E
:100F00000646E9E61846FDE64345E5D2B8EB020E93
:100F100069EB04010138DFE70846D2E760468DE758
:100F20008146B9E7664675E730464AE7ACF1020C00
:100F3000394413E702383C4424E700BF704700BF40
:100F400002460020884220DA10B405E04FF06043EA
:100F50001C700130884215DA145C4FF06043D3F8FE
:100F6000803E13F0010FF4D04FF06043D3F8003E01
:100F700013F0010FEDD04FF060431B68002BE5D15B
:100F800000BFF8E75DF8044B7047704708B50846A6
:100F90001146FFF7D5FF08BD2DE9F0478CB00024BE
:100FA0000794089409940A940B940194484B1A6B83
:100FB00042F010021A631A6B02F010020192019AB9
:100FC00002941A6B42F004021A631A6B02F00402D4
:100FD0000292029A03941A6B42F080021A631A6B0F
:100FE00002F080020392039A04941A6B42F0010209
:100FF0001A631A6B02F001020492049A05941A6BA8
:1010000042F008021A631A6B02F008020592059A70
:1010100006941A6B42F002021A631B6B03F0020380
:101020000693069BDFF8B4A022462A21504601F021
:1010300089FEDFF8AC9022464FF40051484601F09B
:1010400081FEDFF8A08022464FF48061404601F027
:1010500079FE204F22460521384601F073FE1E4ED0
:1010600022462021304601F06DFE2A2307930125F8
:10107000089509940A9407A9504601F07DFD4FF4A4
:1010800000530793089509940A9407A9484601F06C
:1010900073FD4FF480630793089509940A9407A998
:1010A000404601F069FD05230793089509940A94C9
:1010B00007A9384601F060FD20230793089509949D
:1010C0000A9407A9304601F057FD0CB0BDE8F0873F
:1010D00000380240000C02400004024000100240B0
:1010E000000802400000024000B58DB000230193CB
:1010F00002931548154A0260436083604FF6FF7201
:10110000C26003614361836103220392049301225D
:10111000059206930793089309920A930B9303A9E8
:1011200000F08CFD50B900230193029301A90648F9
:1011300000F0CCFE28B90DB05DF804FB02F03CF9DC
:10114000F1E702F039F9F6E7E4030020000001407E
:1011500000B58DB000230193029315484FF08042F3
:101160000260436083604FF6FF72C2600361836177
:101170000322039204930122059206930793089396
:1011800009920A930B9303A900F058FD50B900236C
:101190000193029301A9064800F098FE28B90DB00A
:1011A0005DF804FB02F008F9F1E702F005F9F6E753
:1011B0002404002000B58DB000230193029315484C
:1011C000154A0260436083604FF6FF72C26003619C
:1011D00083610322039204930122059206930793ED
:1011E000089309920A930B9303A900F027FD50B9C5
:1011F00000230193029301A9064800F067FE28B975
:101200000DB05DF804FB02F0D7F8F1E702F0D4F876
:10121000F6E700BFA40300200004004000B58DB035
:101220000023019302931548154A026043608360CE
:101230004FF6FF72C260036183610322039204933D
:101240000122059206930793089309920A930B9340
:1012500003A900F0F3FC50B900230193029301A904
:10126000064800F033FE28B90DB05DF804FB02F02B
:10127000A3F8F1E702F0A0F8F6E700BF640300204E
:101280000008004070B590B000230B930C930D93B1
:101290000E930F930368804A93420CD0B3F1804FB2
:1012A00062D07E4A934200F08C807D4A934200F0E7
:1012B000C78010B070BD002401947A4B5A6C42F084
:1012C00001025A645A6C02F001020192019A0294DE
:1012D0001A6B42F010021A631A6B02F010020292AB
:1012E000029A03941A6B42F001021A631B6B03F01B
:1012F00001030393039B4FF400630B9302260C96A8
:1013000001250D950E940F950BA9674801F034FC4B
:101310004FF480730B930C960D950E940F950BA9BB
:10132000624801F029FC22462146182001F036FDD2
:10133000182001F067FD22462146192001F02EFDFC
:10134000192001F05FFD224621461A2001F026FDFA
:101350001A2001F057FD224621461B2001F01EFDF8
:101360001B2001F04FFDA4E70024049403F50E3385
:101370001A6C42F001021A641A6C02F00102049223
:10138000049A05941A6B42F001021A631B6B03F076
:1013900001030593059B48F202030B9302230C9370
:1013A00001230D930E940F930BA9404801F0E4FB29
:1013B000224621461C2001F0F1FC1C2001F022FDF8
:1013C00077E700240694374B1A6C42F002021A6445
:1013D0001A6C02F002020692069A07941A6B42F007
:1013E00001021A631A6B02F001020792079A08942D
:1013F0001A6B42F002021A631B6B03F0020308939C
:10140000089B80230B9302250C9501260D960E94C4
:101410000F950BA9254801F0AFFB10230B930C95FA
:101420000D960E940F950BA9214801F0A5FB2246BD
:1014300021461D2001F0B2FC1D2001F0E3FC38E73D
:1014400000240994174B1A6C42F004021A641A6CB7
:1014500002F004020992099A0A941A6B42F00202FD
:101460001A631B6B03F002030A930A9BC0230B93BE
:1014700002230C9301220D920E940F930BA90C489A
:1014800001F07AFB224621461E2001F087FC1E2037
:1014900001F0B8FC0DE700BF00000140000400406F
:1014A00000080040003802400010024000000240E6
:1014B0000004024002680E4B9A4200D0704700B50B
:1014C00083B00021019103F59A335A6C42F0020275
:1014D0005A645B6C03F002030193019B0A462C20C3
:1014E00001F05CFC2C2001F08DFC03B05DF804FBE6
:1014F0000004014000B587B00023019302930393D9
:1015000004930593026803F1804303F582339A4202
:1015100002D007B05DF804FB002300930B4A116B67
:1015200041F004011163126B02F004020092009A70
:101530004FF47072019202220292039304930323E8
:10154000059301A9024801F017FBE2E700380240C9
:101550000008024030B593B000241094119409940F
:101560000A940B940C940D940E940F9420252A4603
:10157000214601A802F072F83048314B0360446004
:10158000856042F60313C36004614461846100F026
:101590003BFB00283CD100231093119310A927484E
:1015A00000F094FC002836D16023099300220A92AF
:1015B0000B920C920D920E920F9209A91F4800F007
:1015C000C3FB58BB042209A91C4800F0BDFB40BB6B
:1015D000082209A9194800F0B7FB28BB0C2209A969
:1015E000164800F0B1FB10BB002301930293039354
:1015F000049305934FF400520692089301A90F48F3
:1016000000F087FCB0B90D48FFF774FF13B030BD90
:1016100001F0D2FEBFE701F0CFFEC5E701F0CCFE3E
:10162000D0E701F0C9FED3E701F0C6FED6E701F02E
:10163000C3FED9E701F0C0FEE5E700BF24030020A8
:101640000004014008B50A480A4B03604FF4E13337
:10165000436000238360C36003610C2242618361A5
:10166000C36100F05DFE00B908BD01F0A5FEFBE717
:1016700064040020004C004008B50A480A4B03608F
:101680004FF4E133436000238360C36003610C22A5
:1016900042618361C36100F043FE00B908BD01F0FF
:1016A0008BFEFBE7A40400200044004010B58AB084
:1016B00000230593069307930893099303682D4A23
:1016C000934204D02C4A934227D00AB010BD002187
:1016D00001912A4B1A6C42F400221A641A6C02F42B
:1016E00000220192019A02911A6B42F004021A63DD
:1016F0001B6B03F004030293029B4FF440630593BA
:1017000002230693012307930323089308230993D5
:1017100005A91B4801F030FAD7E700240394174BC2
:101720001A6C42F400321A641A6C02F4003203920A
:10173000039A04941A6B42F008021A631B6B03F0BD
:1017400008030493049B602305930223069301235B
:101750000793032308930723099305A9094801F078
:101760000BFA22462146262001F018FB262001F024
:1017700049FBAAE7004C004000440040003802400A
:1017800000080240000C02407047FEE7FEE7FEE75B
:10179000FEE770477047704708B501F097FB08BD3A
:1017A00008B5024800F00FF908BD00BFE4030020AF
:1017B00008B5024800F007F908BD00BFE4030020A7
:1017C00008B5024800F0FFF808BD00BFE4030020A0
:1017D00008B5024800F0F7F808BD00BFE403002098
:1017E00008B5024800F0EFF808BD00BF240400204F
:1017F00008B5024800F0E7F808BD00BFA4030020C8
:1018000008B5024800F0DFF808BD00BF64030020FF
:1018100008B5024800F012FE08BD00BFA404002075
:1018200008B5024800F0CFF808BD00BF240300202F
:1018300000B583B0002100910C4B5A6C42F48042F9
:101840005A645A6C02F480420092009A01911A6C18
:1018500042F080521A641B6C03F080530193019B89
:10186000072001F089FA03B05DF804FB003802405C
:1018700030B4036A23F001030362056A4268846995
:1018800024F073040B681C4325F002058B682B437E
:10189000104DA84203D005F58065A84205D123F07C
:1018A0000803CD682B4323F004030A4DA84203D05C
:1018B00005F58065A84205D122F440724D691543B3
:1018C0008A692A43426084614A684263036230BC89
:1018D000704700BF0000014030B4036A23F48073F6
:1018E0000362036A4268C46924F073040D682C43E0
:1018F00023F400738D6843EA0523124DA84203D0F8
:1019000005F58065A84206D123F40063CD6843EA5B
:10191000052323F480630B4DA84203D005F58065B1
:10192000A84207D122F440524D6942EA05128D695E
:1019300042EA05124260C4614A68C263036230BC75
:10194000704700BF0000014030B4036A23F48053A5
:101950000362036A4468C26922F4E6420D6842EAFF
:10196000052223F400538D6843EA0533094DA8424C
:1019700003D005F58065A84204D124F480444D6964
:1019800044EA85144460C2614A680264036230BC60
:10199000704700BF00000140022380F83D3002681C
:1019A000936803F00703062B03D0136843F0010389
:1019B0001360012380F83D30002070477047704766
:1019C00070477047704710B5044603681A6912F0F3
:1019D000020F11D0DA6812F0020F0DD06FF0020280
:1019E0001A610123037703689B6913F0030F70D01A
:1019F000FFF7E6FF0023237723681A6912F0040F2C
:101A000012D0DA6812F0040F0ED06FF004021A61DF
:101A10000223237723689B6913F4407F5FD020461D
:101A2000FFF7CEFF0023237723681A6912F0080F0F
:101A300012D0DA6812F0080F0ED06FF008021A61A7
:101A4000042323772368DB6913F0030F4ED020466D
:101A5000FFF7B6FF0023237723681A6912F0100FEF
:101A600012D0DA6812F0100F0ED06FF010021A6167
:101A7000082323772368DB6913F4407F3DD0204699
:101A8000FFF79EFF0023237723681A6912F0010FE6
:101A900003D0DA6812F0010F36D123681A6912F008
:101AA000800F03D0DA6812F0800F34D123681A69EE
:101AB00012F0400F03D0DA6812F0400F32D12368E1
:101AC0001A6912F0200F03D0DA6812F0200F30D11B
:101AD00010BDFFF774FF2046FFF773FF8AE720462B
:101AE000FFF76DFF2046FFF76CFF9BE72046FFF7EF
:101AF00066FF2046FFF765FFACE72046FFF75FFF74
:101B00002046FFF75EFFBDE76FF001021A61204635
:101B1000FFF754FFC1E76FF080021A61204600F022
:101B200022FAC3E76FF040021A612046FFF74AFF2E
:101B3000C5E76FF020021A61204600F013FAC7E7EC
:101B40000368304A904212D0B0F1804F0FD0A2F516
:101B50007C4290420BD002F58062904207D002F5A1
:101B60008062904203D002F57842904203D123F084
:101B700070034A681343234A90422AD0B0F1804F41
:101B800027D0A2F57C42904223D002F58062904299
:101B90001FD002F5806290421BD002F5784290423D
:101BA00017D002F57052904213D002F58062904235
:101BB0000FD002F5806290420BD0A2F5983290428D
:101BC00007D002F58062904203D002F58062904215
:101BD00003D123F44073CA68134323F080034A6996
:101BE000134303608B68C3620B688362054B9842A2
:101BF00003D003F58063984201D10B69036301238D
:101C00004361704700000140B0B110B5044690F840
:101C10003D3063B1022384F83D30214651F8040B76
:101C2000FFF78EFF012384F83D30002010BD80F8BF
:101C30003C30FFF73FFCEDE701207047002849D01A
:101C4000F8B50C46054690F83D30002B3DD00223F8
:101C500085F83D302A68936823F4804323F0070316
:101C60009360294651F8040BFFF76AFF29688A68D8
:101C70008E690F6A2068104326F4407626F003062A
:101C8000A268A36942EA0323334323F47C4323F08D
:101C9000FC03E668E26946EA02261E43226A130351
:101CA000226943EA0213334327F0AA076268646992
:101CB00042EA04123A43886029688B612B681A62F1
:101CC000012385F83D300020F8BD80F83C30FFF757
:101CD000D9FABCE70120704730B4036A23F010033F
:101CE0000362036A4468826922F4E6420D6842EAAC
:101CF000052223F020038D6843EA0513114DA84205
:101D000003D005F58065A84206D123F08003CD6895
:101D100043EA051323F040030A4DA84203D005F51A
:101D20008065A84207D124F440644D6944EA8504E3
:101D30008D6944EA8504446082614A688263036273
:101D400030BC70470000014038B590F83C30012BA2
:101D500066D004460D46012380F83C30022380F80B
:101D60003D300C2A1AD8DFE802F00719191920199A
:101D700019193419191947000068FFF779FD22680D
:101D8000936943F0080393612268936923F0040385
:101D900093612268936929690B439361012384F855
:101DA0003D30002084F83C0038BD0068FFF794FF08
:101DB0002268936943F4006393612268936923F472
:101DC0008063936122689369296943EA01239361DF
:101DD000E4E70068FFF780FD2268D36943F0080359
:101DE000D3612268D36923F00403D3612268D369E5
:101DF00029690B43D361D1E70068FFF7A5FD22688D
:101E0000D36943F40063D3612268D36923F4806308
:101E1000D3612268D369296943EA0123D361BDE70D
:101E20000220C1E710B401F01F01012303FA01F4FD
:101E3000036A23EA04030362036A02FA01F10B4313
:101E400003625DF8044B704710B504460122006838
:101E5000FFF7E8FF23680B4A934203D002F5806244
:101E6000934203D15A6C42F400425A642268936848
:101E700003F00703062B03D0136843F0010313603C
:101E8000002010BD0000014010B5044661B10429D6
:101E900016D0012200210068FFF7C4FF01220421AF
:101EA0002068FFF7BFFF04E0012200210068FFF770
:101EB000B9FF2268136843F001031360002010BDCE
:101EC000012204210068FFF7ADFFF2E790F83C30F3
:101ED000012B1CD070B4012680F83C60022380F8EE
:101EE0003D3002685568936825F070050C682C43F6
:101EF00023F080054B682B4354600268936080F8A0
:101F00003D60002380F83C30184670BC70470220CA
:101F1000704790F83C30012B22D0012380F83C30F0
:101F2000CB6823F440738A68134323F480634A68C0
:101F3000134323F400630A68134323F480530A69AC
:101F4000134323F400534A69134323F48043CA69BB
:101F5000134302685364002380F83C3018467047EE
:101F600002207047704770470268D36823F490736B
:101F7000D3600268536923F001035361202380F882
:101F80003A30704790F83930DBB2212B01D0022073
:101F900070478368B3F5805F17D0036A5A1C0262EA
:101FA0001A7803685A60C38C9BB2013B9BB2C3840E
:101FB0004BB90268D36823F08003D3600268D3680A
:101FC00043F04003D36000207047036A1B88026817
:101FD000C3F30803536003691BB9036A0233036246
:101FE000E1E7036A01330362DDE700002DE9F8430E
:101FF00004460268136923F44053C1680B4313611C
:1020000083680269134342691343C2691A43016832
:10201000CB6823F4164323F00C031343CB60026810
:10202000536923F4407381690B435361C369B3F56A
:10203000004F60D00368B84A934200F0148102F563
:102040008062934200F00F8100F076FD00EB80008B
:1020500000EB80006568AD00B0FBF5F5AF4EA6FB68
:1020600005356D092F0100F067FD00EB800505EBDC
:10207000850563689B00B5FBF3F900F05DFD00EB9F
:10208000800000EB80006568AD00B0FBF5F5A6FBB5
:1020900005356D094FF0640808FB15952D013235A3
:1020A000A6FB05356D0905F0F0053D4400F044FD43
:1020B00000EB800000EB80006768BF00B0FBF7F723
:1020C00000F03AFD00EB800000EB800063689B00AD
:1020D000B0FBF3F0A6FB0030400908FB10784FEA94
:1020E000081808F13208A6FB0836C6F34316236821
:1020F0002E449E600DE10368874A93425BD002F54F
:102100008062934257D000F017FD00EB800000EB97
:10211000800065686D00B0FBF5F5804EA6FB0535C7
:102120006D092F0100F008FD00EB800000EB80003E
:1021300065686D00B0FBF5F900F0FEFC00EB800077
:1021400000EB800065686D00B0FBF5F5A6FB05357A
:102150006D094FF0640808FB1595ED003235A6FBBC
:1021600005356D096D0005F4F8753D4400F0E4FC9B
:1021700000EB800000EB800067687F00B0FBF7F7A2
:1021800000F0DAFC00EB800000EB800063685B008D
:10219000B0FBF3F3A6FB03235B0908FB13784FEABC
:1021A000C80808F13208A6FB0836C6F342162368B1
:1021B0002E449E60ADE000F0CFFC00EB800000EB11
:1021C000800065686D00B0FBF5F5544EA6FB053543
:1021D0006D092F0100F0C0FC00EB800000EB8000D7
:1021E00065686D00B0FBF5F900F0B6FC00EB80000F
:1021F00000EB800065686D00B0FBF5F5A6FB0535CA
:102200006D094FF0640808FB1595ED003235A6FB0B
:1022100005356D096D0005F4F8753D4400F09CFC32
:1022200000EB800000EB800067687F00B0FBF7F7F1
:1022300000F092FC00EB800000EB800063685B0024
:10224000B0FBF3F3A6FB03235B0908FB13784FEA0B
:10225000C80808F13208A6FB0836C6F34216236800
:102260002E449E6055E000F077FC00EB800000EB10
:1022700080006568AD00B0FBF5F5284EA6FB05357E
:102280006D092F0100F068FC00EB800505EB85056A
:1022900063689B00B5FBF3F900F05EFC00EB800087
:1022A00000EB80006568AD00B0FBF5F5A6FB0535D9
:1022B0006D094FF0640808FB15952D013235A6FB1A
:1022C00005356D0905F0F0053D4400F045FC00EBD7
:1022D000800000EB80006768BF00B0FBF7F700F0FC
:1022E0003BFC00EB800000EB800063689B00B0FBD0
:1022F000F3F0A6FB0030400908FB10784FEA0818FD
:1023000008F13208A6FB0836C6F3431623682E44AC
:102310009E60BDE8F88300BF001001401F85EB51AF
:1023200058B310B5044690F839300BB3242384F821
:1023300039302268D36823F40053D3602046FFF776
:1023400055FE2268136923F4904313612268536990
:1023500023F02A0353612268D36843F40053D36007
:102360000020E063202384F8393084F83A3010BD2F
:1023700080F83830FFF79AF9D8E7012070477047A6
:1023800008B50168CA6822F04002CA60202280F8BD
:102390003920FFF7F4FF002008BD704708B590F81A
:1023A0003A30DBB2222B46D18368B3F5805F0FD081
:1023B00003690BBB03685A68836A591C81621A70EF
:1023C000C38D9BB2013B9BB2C385F3B1002008BD16
:1023D000826A036943B903685B68C3F30803138027
:1023E000836A02338362EBE703685B68DBB21380C6
:1023F000836A01338362E3E703685B68826A511C86
:10240000816203F07F031370DAE70268D36823F078
:102410002003D3600268D36823F48073D36002681A
:10242000536923F001035361202380F83A30FFF70A
:10243000B4FF0020CBE70220C9E7704710B504467F
:1024400002681368D168526913F00F0005D113F0C8
:10245000200F02D011F0200F13D128B112F0010289
:1024600013D111F4907F10D113F0800F02D011F02E
:10247000800F69D113F0400F02D011F0400F67D1E7
:1024800010BD2046FFF78AFFFAE713F0010F06D0D0
:1024900011F4807F03D0E06B40F00100E06313F0A3
:1024A000040F04D01AB1E06B40F00200E06313F0B7
:1024B000020F04D01AB1E06B40F00400E06313F0A7
:1024C000080F04D01AB1E26B42F00802E263E26B3B
:1024D000002AD5D013F0200F02D011F0200F21D107
:1024E00023685B6903F04003E26B12F0080F00D130
:1024F00023B32046FFF738FD23685A6912F0400FD6
:1025000018D05A6922F040025A61636B73B1124AC3
:102510001A65606B00F01CFC0028B1D0606B036D85
:102520009847ADE72046FFF739FFD9E72046FFF788
:1025300084FFA5E72046FFF780FFA1E72046FFF7CD
:102540007CFF0023E3639BE72046FFF71BFD97E733
:102550002046FFF715FF93E75D25000808B5806B5F
:102560000023C385C384FFF768FF08BD002800F07F
:10257000B98170B582B00446036813F0010F3BD0F7
:10258000A64B9B6803F00C03042B2CD0A34B9B6839
:1025900003F00C03082B21D06368B3F5803F4FD0C4
:1025A000B3F5A02F52D09D4B1A6822F480321A60E6
:1025B0001A6822F480221A606368002B50D000F061
:1025C00091FC0546954B1B6813F4003F14D100F0B5
:1025D00089FC401B6428F5D903208AE18F4B5B6896
:1025E00013F4800FD8D08D4B1B6813F4003F03D039
:1025F0006368002B00F07881236813F0020F54D039
:10260000864B9B6813F00C0F3ED0844B9B6803F005
:102610000C03082B33D0E368002B67D0804B0122DA
:102620001A6000F05FFC05467C4B1B6813F0020F3C
:1026300053D100F057FC401B0228F5D9032058E184
:10264000764A136843F480331360B5E7734B1A6816
:1026500042F480221A601A6842F480321A60ABE7B2
:1026600000F040FC05466D4B1B6813F4003FC3D0DF
:1026700000F038FC401B6428F5D9032039E1674B92
:102680005B6813F4800FC6D1644B1B6813F0020F14
:1026900003D0E368012B40F02981604A136823F0DE
:1026A000F803216943EAC1031360236813F0080F9C
:1026B00040D0636963B35B4B01221A6000F012FCE7
:1026C0000546564B5B6F13F0020F33D100F00AFC46
:1026D000401B0228F5D903200BE1504A136823F070
:1026E000F803216943EAC1031360DEE74C4B002283
:1026F0001A6000F0F7FB0546484B1B6813F0020F09
:10270000D3D000F0EFFB401B0228F5D90320F0E006
:10271000444B00221A6000F0E5FB05463F4B5B6F1F
:1027200013F0020F06D000F0DDFB401B0228F5D9A4
:102730000320DEE0236813F0040F78D0374B1B6CC6
:1027400013F0805F0DD100230193344B1A6C42F0DB
:1027500080521A641B6C03F080530193019B012586
:1027600000E00025304B1B6813F4807F21D0A36864
:10277000012B32D0052B36D0284B1A6F22F00102E4
:102780001A671A6F22F004021A67A368002B34D06C
:1027900000F0A8FB0646214B1B6F13F0020F45D13A
:1027A00000F0A0FB801B41F288339842F3D903204C
:1027B0009FE01D4A136843F48073136000F092FB9E
:1027C0000646194B1B6813F4807FD0D100F08AFBBA
:1027D000801B0228F5D903208BE0104A136F43F0C9
:1027E00001031367D1E70D4B1A6F42F004021A6719
:1027F0001A6F42F001021A67C7E700F073FB064642
:10280000064B1B6F13F0020F10D000F06BFB801B08
:1028100041F288339842F3D903206AE0003802403D
:1028200000004742800E474200700040E5B9A369AE
:10283000002B5DD0314A926802F00C02082A5AD06F
:10284000022B17D02E4B00221A6000F04BFB0446DF
:102850002A4B1B6813F0007F42D000F043FB001BA3
:102860000228F5D9032044E0244A136C23F0805356
:102870001364DCE7224B00221A6000F033FB0546AC
:102880001E4B1B6813F0007F06D000F02BFB401B93
:102890000228F5D903202CE0E369226A1343626A17
:1028A00043EA8213A26A5208013A43EA0243E26A07
:1028B00043EA0263114A5360114B01221A6000F08F
:1028C00011FB04460D4B1B6813F0007F06D100F08E
:1028D00009FB001B0228F5D903200AE0002008E0CC
:1028E000002006E001207047012002E0012000E006
:1028F000002002B070BD0120FBE700BF003802409D
:1029000060004742F8B52F4B9B6803F00C03042B83
:1029100053D0082B53D12B4B5A6802F03F025B680F
:1029200013F4800F28D0274B5B68C3F3881358013A
:102930000021C01A61F100018E0146EA906687010C
:102940003C1A66EB0105E90041EA5471E000C01849
:1029500041F100014B0243EAD0534402204619469C
:102960000023FEF771F9174B5B68C3F30143013392
:102970005B00B0FBF3F023E0124B5B68C3F38813FA
:102980005C010025E41A65F10005AE0146EA946693
:10299000A701381B66EB0501CC0044EA5074C50062
:1029A000E81844F100018B0243EA90538402204668
:1029B00019460023FEF748F9D5E7034800E003482D
:1029C000F8BD00BF0038024000127A000024F40075
:1029D000002800F09A8070B50D4604464F4B1B68E6
:1029E00003F00F038B4208D2CBB24C4A137013682A
:1029F00003F00F038B4240F08A80236813F0020F2C
:102A000017D013F0040F04D0454A936843F4E05301
:102A10009360236813F0080F04D0414A936843F48D
:102A2000604393603E4A936823F0F003A1680B4330
:102A30009360236813F0010F32D06368012B21D01B
:102A40009A1E012A25D9364A126812F0020F60D068
:102A500033498A6822F0030213438B6000F042FA84
:102A600006462F4B9B6803F00C036268B3EB820FA2
:102A700016D000F037FA801B41F288339842F0D923
:102A8000032041E0264A126812F4003FE0D1012001
:102A90003AE0234A126812F0007FD9D1012033E0D6
:102AA0001E4B1B6803F00F03AB4207D9EAB21B4B66
:102AB0001A701B6803F00F03AB422CD1236813F08C
:102AC000040F06D0164A936823F4E053E1680B43E1
:102AD0009360236813F0080F07D0114A936823F41A
:102AE0006043216943EAC1039360FFF70BFF0C4B7E
:102AF0009B68C3F303130B4AD35CD8400A4B18609E
:102B0000002000F0A3F9002070BD012070470120D3
:102B1000FAE70120F8E70120F6E700BF003C024099
:102B200000380240D05E00080C000020014B1868FD
:102B3000704700BF0C00002008B5FFF7F7FF044BFB
:102B40009B68C3F38223034AD35CD84008BD00BF0F
:102B500000380240E05E000808B5FFF7E7FF044BCD
:102B60009B68C3F34233034AD35CD84008BD00BF1F
:102B700000380240E05E000800230F2B00F2D980ED
:102B8000F0B482B039E0072200E00022B2403A43BC
:102B90000234684E46F82420674A1468EA4324EA5F
:102BA00005064F6817F4803F01D045EA0406624CE1
:102BB0002660646802EA04064F6817F4003F01D0FB
:102BC00045EA04065C4C6660A46802EA04064F68A5
:102BD00017F4801F01D045EA0406574CA660E4684C
:102BE00022404E6816F4001F01D045EA0402524C00
:102BF000E26001330F2B00F2998001229A400C68A9
:102C000004EA020532EA0404F3D14C68022C01D034
:102C1000122C10D1DE08083650F826C003F0070445
:102C2000A7000F24BC402CEA040C0C69BC4044EA09
:102C30000C0440F82640D0F800C05E000324B440E5
:102C4000E7432CEA040C4C6804F00304B44044EA63
:102C50000C0404604C6804F1FF3CBCF1010F03D983
:102C6000112C01D0122C10D1846807EA040CCC6816
:102C7000B44044EA0C048460446824EA02024C68CC
:102C8000C4F300149C4014434460C26817408A682F
:102C9000B2403A43C2604A6812F0805FA9D0002275
:102CA0000192264A546C44F480445464526C02F4F9
:102CB00080420192019A9C08A61C1E4A52F8267076
:102CC00003F0030296000F22B24027EA02071C4AD3
:102CD00090423FF45AAF02F5806290421AD002F55A
:102CE0008062904218D002F58062904216D002F5C0
:102CF0008062904214D002F58062904212D002F5B8
:102D00008062904210D002F5806290423FF43BAF67
:102D100008223BE7012239E7022237E7032235E7A1
:102D2000042233E7052231E706222FE702B0F0BC88
:102D30007047704700380140003C014000380240B5
:102D4000000002400AB18161704709048161704747
:102D500090F83530DBB2022B03D08023436501208D
:102D60007047052380F835300268136823F00103AB
:102D70001360002070470000074AD36823F4E06323
:102D80001B041B0C000200F4E060034343F0BF632C
:102D900043F40033D360704700ED00E030B4174BCC
:102DA000DB68C3F30223C3F10704042C28BF042407
:102DB0001D1D062D18D9033B4FF0FF3505FA04F40D
:102DC00021EA0401994005FA03F322EA03031943B7
:102DD00000280BDB0901C9B200F1604000F5614039
:102DE00080F8001330BC70470023E5E700F00F00C7
:102DF0000901C9B2024B1954F4E700BF00ED00E02D
:102E000014ED00E0002807DB00F01F024009012359
:102E10009340024A42F82030704700BF00E100E0D2
:102E20000138B0F1807F0AD2064B5860064AF02183
:102E300082F823100020986007221A607047012052
:102E4000704700BF10E000E000ED00E010B5044660
:102E50000E4B18784FF47A73B3FBF0F30C4A1068FA
:102E6000B0FBF3F0FFF7DCFF68B90F2C01D90120AC
:102E70000AE0002221464FF0FF30FFF78FFF054B9D
:102E80001C60002000E0012010BD00BF04000020F5
:102E90000C0000200800002008B50B4B1A6842F413
:102EA00000721A601A6842F480621A601A6842F46A
:102EB00080721A600320FFF75FFF0020FFF7C6FF54
:102EC000FEF7B6FC002008BD003C0240034A116832
:102ED000034B1B780B441360704700BFE4040020D1
:102EE00004000020014B1868704700BFE404002074
:102EF0000F49D1F8883043F47003C1F888300D4B86
:102F00001A6842F001021A60002098601A6822F0E4
:102F1000847222F480321A60074A5A601A6822F4D6
:102F200080221A60D8604FF000638B60704700BF4A
:102F300000ED00E00038024010300024DFF834D00B
:102F4000002103E00C4B5B58435004310B480C4B01
:102F500042189A42F6D30B4A02E0002342F8043B9F
:102F6000094B9A42F9D3FFF7C3FF00F053FB00F07F
:102F700009FA704700000220EC6100080000002000
:102F80003802002038020020F8040020FEE700008C
:102F9000012800D0704708B54FF6FF73994200D062
:102FA00008BDFFF79FFF014B1860F9E754020020AE
:102FB000F0B585B0FFF796FF254B1B68C01A0428B3
:102FC00001D805B0F0BDFFF78DFF214B186000F070
:102FD000E3FA00F0E9FA00F0EFFA00F0F5FA10EE8B
:102FE000104A00F0F7FA10EE106A00F0F9FA10EE4D
:102FF000100AFDF7A9FA12A3D3E90023FDF7FCFAA2
:1030000011A3D3E90023FDF7F7FAFDF7CDFD07463D
:103010002046FDF799FA04460D463846FDF794FA26
:10302000CDE902013046FDF78FFACDE900012246D5
:103030002B46084800F084FFC3E700BFAFF30080D1
:103040006666666666A64C406666666666660A40A2
:1030500054020020E85E000808B54FF6FF71012019
:10306000FFF796FF08BD0000034B00E0043B034A56
:103070009342FBD1704700BFE8020020D802002035
:10308000F8B52E4C2E48A061DFF8D0C0C4F808C0B7
:103090000123A3812B4921612026A6820025E56119
:1030A000294A2260294B6360A063294FA7624FF42D
:1030B0008067A78507F1804707F500372763A68655
:1030C0000427E76322626362A065A1640826A4F86E
:1030D0004C60C4F850C0A4F85470E6652264636480
:1030E000A0671C4EA6664FF40056A4F86C602167DA
:1030F0000221A4F874100C21E16722666366FEF7D2
:103100004BFCE169A069FEF79FFEE16BA06BFEF747
:103110009BFEE16DA06DFEF797FEE16FA06FFEF7DD
:1031200093FE2B4606E0054A02EB43120A4941F89A
:1031300023200133032BF6DDF8BD00BF5802002029
:1031400024030020001002400000F041CDCCCC3D13
:103150000000024000080240D8020020000C02409B
:10316000012800D0704708B54FF6FF73994200D090
:1031700008BD0323064A03E0002142F8041B013B7B
:10318000002BF9DA034A0449002000F02FFAEFE798
:10319000D8020020000000206930000808B5FFF7C1
:1031A0006FFF00F035F808BD08B54FF6FF7101203C
:1031B000FFF7D6FF08BD0000034B00E00C3B034ABD
:1031C0009342FBD1704700BF18030020E8020020A3
:1031D000012800D0704708B54FF6FF73994200D020
:1031E00008BD0322074B05E00021596000219960CA
:1031F0000C33013A002AF7DA034A0449002000F0B0
:10320000F5F9EDE7E802002000000020B9310008E0
:1032100010B50C4C0C4820600C4BE3600C4BA361C8
:103220000C4B63623C21FEF72FFE3C21E068FEF769
:103230002BFE3C21A069FEF727FE3C21606AFEF7C9
:1032400023FE10BDE8020020E40300202404002037
:10325000A40300206403002038B5044605682B68E9
:10326000586A00B2FDF75EF90FA3D3E90023FDF71A
:10327000C3F900220A4BFDF7BFF90022094BFDF705
:10328000E5FAFDF791FC60602B685B6AA26802FAC0
:1032900083F3A3602B6800225A6238BDAFF300802D
:1032A00000408F400080B3406F1283C0CA21194094
:1032B00008B500EB4000034B03EB8000FFF7CCFFA9
:1032C00008BD00BFE802002000EB4000024B03EB0A
:1032D000800090ED010A7047E802002008B54FF623
:1032E000FF710120FFF774FF08BD000030B595B0F5
:1032F0003022002108A800F0B1F9002403940494BE
:1033000005940694079401941C4B1A6C42F0805269
:103310001A641B6C03F080530193019B0294184BB9
:103320001A6842F480421A601B6803F480430293D7
:10333000029B012308934FF48033099302250E95D5
:103340004FF480030F93082310934FF4A873119345
:1033500012950723139308A8FFF708F90F23039387
:10336000049505944FF4A05306934FF480530793AC
:10337000052103A8FFF72CFB15B030BD0038024033
:103380000070004008B5FFF787FDFFF7AFFFFDF7BE
:1033900003FEFDF7A9FEFDF7DBFEFDF70BFFFDF7D2
:1033A0003DFFFEF7D7F8FEF74DF9FEF765F9FFF799
:1033B000F5FEFFF7FDFDFCE7704700000000000090
:1033C00010B504460020FFF773FF0120FFF770FFE0
:1033D0000220FFF76DFF0320FFF76AFF0020FFF7D1
:1033E00073FF10EE100AFDF7AFF81BA3D3E900231B
:1033F000FDF702F9FDF7D8FB20630120FFF764FF1A
:1034000010EE100AFDF7A0F813A3D3E90023FDF78F
:10341000F3F8FDF7C9FB60630220FFF755FF10EEDC
:10342000100AFDF791F80CA3D3E90023FDF7E4F8A7
:10343000FDF7BAFBA0630320FFF746FF10EE100A6A
:10344000FDF782F804A3D3E90023FDF7D5F8FDF7D3
:10345000ABFBE06310BD00BF39B4C876BE9FF63F3A
:1034600070B52DED028B0546002623E004EB8603A4
:1034700005EB8303D3ED007A04F10C0305EB830322
:1034800093ED007A67EE877A38EE278A18EE100AF5
:10349000FDF75AF80DA3D3E90023FDF7ADF8FDF7CA
:1034A00083FB06F1100305EB830318600134032C42
:1034B000DCDD0136022E03DC00249FED038AF6E7F3
:1034C000BDEC028B70BD00BF00000000333333330E
:1034D00033331B4000000000D0B52DED028B0446B5
:1034E000C06CFDF731F806460F46D4ED107AB1EE08
:1034F000048A67EE887A17EE900AFDF725F824A370
:10350000D3E90023FDF7A2F902460B4630463946BF
:10351000FCF7BCFEFDF748FBE064206DFDF714F8F6
:1035200006460F46D4ED117A67EE887A17EE900AB8
:10353000FDF70AF816A3D3E90023FDF787F9024641
:103540000B4630463946FCF7A1FEFDF72DFB206502
:10355000606DFCF7F9FF06460F46D4ED127A67EE70
:10356000887A17EE900AFCF7EFFF09A3D3E900234E
:10357000FDF76CF902460B4630463946FCF786FEED
:10358000FDF712FB6065BDEC028BD0BDAFF3008090
:1035900000000000006AF84008B50248FFF710FF7D
:1035A00008BD00BF1000002008B50248FFF758FF13
:1035B00008BD00BF1000002008B50248FFF78CFFCF
:1035C00008BD00BF10000020014B93ED130A7047A7
:1035D00010000020014B93ED140A704710000020EA
:1035E000014B93ED150A7047100000200B46014671
:1035F000184600F001B8000010B5054C13462CB178
:103600000A4601460220AFF3008010BD2046FCE7C9
:103610000000000070B50D4D0D4C641BA410002679
:10362000A64209D10B4D0C4C02F044FC641BA410C3
:103630000026A64205D170BD55F8043B98470136D7
:10364000EEE755F8043B98470136F2E7D8610008E9
:10365000D8610008D8610008E86100080244034608
:10366000934200D1704703F8011BF9E72DE9FF47AA
:1036700055EC104B002D0E4619462B46BBBF05F1ED
:1036800000431D4600232D230B700D9BDDF830A059
:10369000914623F02008BCBF22461446B8F1460FDD
:1036A00005D0B8F1450F00D10136022100E0032119
:1036B00003AB019302AB009345EC104B53463246EB
:1036C00000F0E2FCB8F1470F074602D119F0010FF4
:1036D00022D0B8F1460F07EB060910D13B78302B0A
:1036E0000AD10022002320462946FDF7EDF918B93A
:1036F000C6F10106CAF80060DAF8003099440022E9
:10370000002320462946FDF7DFF908B1CDF80C90DB
:103710003022039B4B4507D3039B0E9ADB1B384695
:10372000136004B0BDE8F087591C03911A70F0E7EC
:10373000F7B503460029B8BF494203F8022BB4BFCE
:103740002D222B22092942702ADD0DF10704A446FF
:103750000A27A6460A4691FBF7F607FB16153035F1
:10376000632A04F1FF340EF8015C3146F1DC30319C
:10377000AEF1020504F8011C441C294661450AD338
:103780000DF10902A2EB0E02654588BF0022134429
:10379000181A03B0F0BD11F8012B04F8012FEDE762
:1037A000302330318370C170031DF1E72DE9F04FF4
:1037B0002DED028B8DB00C46DDF8608016461F465D
:1037C000054601F035FBD0F800A05046FCF700FD9F
:1037D00000230A9323680593D8F8003094F818B0B2
:1037E000073323F0070303F10802C8F80020D3E9E8
:1037F0000023C4E91223D4E9128929F00043079376
:10380000CDF8188008EE100A9F4BDDE906014FF055
:10381000FF32FDF78BF988BBDDE906019A4B4FF0CB
:10382000FF32FDF765F948BB0022002340464946B8
:10383000FDF754F910B12D2384F84330934B94488D
:10384000BBF1470F94BF9846804603232361059B35
:1038500023F0040222604FF00009009733460BAAC0
:103860002146284600F0D8F9013040F090804FF012
:10387000FF300DB0BDEC028BBDE8F08F42464B46E9
:1038800040464946FDF752F940B14B46002BBCBFBC
:103890002D2384F843307F487F4BD1E763680BF0DA
:1038A000DF0206925A1C3FD106236360059B6168C4
:1038B00043F48062002303930AABCDE901B309AB63
:1038C00049EC108B009322600DF123032846FFF78B
:1038D000CDFE069B0999472B804608D1C81C02DB08
:1038E0006368994241DDABF1020B5FFA8BFBBBF1E0
:1038F000650F20D801395A4604F150000991FFF7AD
:1039000017FF0A9A1318012A8146236102DC2268F4
:10391000D20701D5013323619DF82330002B9CD0C1
:103920002D2384F8433098E7069A472ABED1002B0E
:10393000BCD10123B9E7BBF1660F18D10029636838
:103940000BDD216113B92268D00702D501330B4486
:103950002361A1654FF00009DEE713B92268D207A1
:1039600001D50233F4E70123F2E74FF0670B0A9B1E
:10397000994205DB23682161D807EAD54B1CE7E7AC
:103980000029D4BFC1F1020201221344E0E72368F9
:103990005A0507D42369424631462846B8470130C4
:1039A0002CD164E7BBF1650F40F2E080D4E912014D
:1039B00000220023FDF788F8002834D0374A01237D
:1039C00031462846B84701303FF451AFDDE90923BD
:1039D0009A4202DB2368D80710D518EE103A5246F7
:1039E00031462846B84701303FF441AF4FF0000858
:1039F00004F11A090A9B013B434509DC23689B0734
:103A000000F10581E0680B9B9842B8BF184630E78B
:103A100001234A4631462846B84701303FF427AFD4
:103A200008F10108E6E7099B002B39DC1B4A01235A
:103A300031462846B84701303FF419AFDDE9092384
:103A4000134302D12368D907D8D518EE103A52464D
:103A500031462846B84701303FF409AF4FF000091E
:103A600004F11A0A099B5B424B4501DC0A9B92E771
:103A70000123524631462846B84701303FF4F7AE9D
:103A800009F10109EEE700BFFFFFEF7F105F0008BB
:103A9000145F00081C5F0008185F0008205F000822
:103AA0000A9AA36D9A42A8BF1A46002A914637DCAB
:103AB0004FF0000B29EAE97904F11A02A36D05938E
:103AC000A3EB09035B4533DCDDE909239A423BDBC9
:103AD0002368DA0738D40A9A059B0999D31AA2EB0E
:103AE00001099945A8BF9946B9F1000F35DC4FF09F
:103AF000000829EAE97904F11A0ADDE909239B1A89
:103B0000A3EB090343457FF779AF012352463146C2
:103B10002846B84701303FF4AAAE08F10108ECE7A7
:103B20001346314642462846B8470130C0D19EE68A
:103B30000123314628460592B84701303FF497AE3D
:103B4000059A0BF1010BB9E718EE103A52463146CF
:103B50002846B8470130BED189E6059A4B46424413
:103B600031462846B8470130C1D180E60A9A012A79
:103B700001DCDB0738D50123424631462846B847E9
:103B800001303FF474AE18EE103A524631462846E2
:103B9000B84701303FF46BAED4E912010022002394
:103BA000FCF792FFD8B90A9B08F10102013B3146AC
:103BB0002846B84701300ED159E601235246314616
:103BC0002846B84701303FF452AE08F101080A9B7D
:103BD000013B4345F1DC4B4604F15002DCE64FF07B
:103BE000000804F11A0AF2E701234246DFE7012345
:103BF0004A4631462846B84701303FF438AE08F10E
:103C00000108E3680B995B1A4345F0DCFAE64FF0D4
:103C1000000804F11909F4E72DE9F0471646994622
:103C20008A680B69DDF820809342B8BF1346336081
:103C300091F8432007460C460AB1013333602368EC
:103C4000990642BF336802333360256815F00605D4
:103C500006D104F1190AE36832689B1AAB4226DCEC
:103C600094F84320131E226818BF012392062BD418
:103C700004F1430249463846C04701301ED023684C
:103C8000E568326803F00603042B08BFAD1AA36889
:103C900022690CBF25EAE57500259342C4BF9B1A33
:103CA000ED1800261A34B5421AD1002008E001238D
:103CB000524649463846C047013003D14FF0FF30E5
:103CC000BDE8F0870135C6E7E1185A1C302081F8BD
:103CD0004300224494F8451082F843100233C7E7AA
:103CE0000123224649463846C0470130E6D0013616
:103CF000D9E700002DE9FF470C469146277E0C9935
:103D0000782F80469A4604F1430207D8622F0AD8DA
:103D1000002F00F0D880582F00F0A38004F1420655
:103D200084F842703AE0A7F16303152BF6D801A09E
:103D300050F823F08D3D0008A13D00081D3D00080E
:103D40001D3D00081D3D00081D3D0008A13D000867
:103D50001D3D00081D3D00081D3D00081D3D0008DB
:103D6000AD3E0008D13D00088F3E00081D3D000813
:103D70001D3D0008CF3E00081D3D0008D13D000854
:103D80001D3D00081D3D0008973E00080B681A1DE8
:103D90001B680A6004F1420684F842300123A3E064
:103DA000256808682E0600F104030AD505680B6033
:103DB000002D03DA2D236D4284F843305E480A2338
:103DC00019E015F0400F05680B6018BF2DB2EFE742
:103DD0000B682568181D0860280601D51D6802E0DB
:103DE0006906FBD51D8854486F2F0CBF08230A2392
:103DF000002184F843106668A660002EA2BF2168E7
:103E000021F0040121600DB9002E4DD01646B5FBFE
:103E1000F3F103FB1157C75D06F8017D2F46BB4246
:103E20000D46F4D9082B0BD12368DF0708D5236989
:103E300061689942DEBF302306F8013C06F1FF3687
:103E4000921B2261CDF800A04B4603AA21464046B2
:103E5000FFF7E2FE01304CD14FF0FF3004B0BDE877
:103E6000F087354884F8457023680E681F0656F8B9
:103E7000045B0E6014D5D90744BF43F020032360D0
:103E80001DB9236823F0200323601023B0E72368C3
:103E900043F0200323607823284884F84530E3E783
:103EA0005E0648BFADB2E6E71646BBE70B6826687C
:103EB00060691D1D0D6035061B6801D5186002E0A4
:103EC0007106FBD51880002323611646BAE70B68FC
:103ED0001A1D0A601E68626800213046FCF780F9EE
:103EE00008B1801B606063682361002384F843305D
:103EF000A8E72369324649464046D0470130ABD057
:103F000023689B0713D4E068039B9842B8BF184608
:103F1000A4E70123324649464046D04701309BD0B2
:103F20000135E36803995B1AAB42F2DCEBE700254D
:103F300004F11906F5E700BF225F0008335F0008AF
:103F40000FB40A4B13B51C6824B1A36913B92046FA
:103F500000F0D0FE05AB049AA1680193204601F061
:103F600075FB02B0BDE8104004B070476800002047
:103F70002DE9F74F03690C69A3420746C0F281801F
:103F8000013C01F1140800F1140505EB84030193D1
:103F900058F8243055F8242001339A424FEA840B14
:103FA00008EB8409B2FBF3F631D34FF0000E404624
:103FB000AC46F24650F8042B93B206FB03E34FEAFB
:103FC000134E9BB2AAEB0303120CDCF800A006FB15
:103FD00002E213FA8AF34FEA124E1FFA82FADCF871
:103FE0000020CAEB124202EB23429BB243EA024397
:103FF00081454CF8043B4FEA224ADBD255F80B309E
:104000002BB9019B043B9D421A462ED33C61384696
:1040100001F057F9002824DB013628464FF0000C48
:1040200058F8042BD0F800E093B2ACEB0303120C69
:1040300013FA8EF3C2EB1E4202EB23429BB243EA19
:104040000243C14540F8043B4FEA224CE8D255F800
:10405000242005EB840322B9043B9D421A460AD36F
:104060003C61304603B0BDE8F08F1268043B002A83
:10407000CCD1013CC7E71268043B002AF0D1013CD7
:10408000EBE70020EEE700002DE9F04F2DED028B6D
:1040900057EC106B95B0456ADDF880800591CDE94D
:1040A0000267044609920F933DB9102000F0C8FE44
:1040B000C0E9015560620560C560636A196851B165
:1040C0005A684A60012393408B60204600F002FF4B
:1040D000636A00221A603B1EB9BF23F000430393BA
:1040E0000023C8F80030DDF80C90B74BBCBF0122AC
:1040F000C8F8002033EA09031BD10F9A42F20F736C
:104100001360C9F31303334300F07585219B63B932
:10411000AE4B25E0AE4B00930833219A1360009814
:1041200015B0BDEC028BBDE8F08FA84B00930333B4
:10413000F3E79DED027B002251EC170B00238DED80
:104140000A7BFCF7C1FC804660B10F9A0123136023
:10415000219B002B00F04C859E4B219A1360013B64
:104160000093DCE79DED0A0B12AA13A9204601F08B
:104170003AF9C9F30A558246002D7ED00B9BCDF843
:104180004080C3F31303DDE90A6743F07F5747F428
:104190004017A5F2FF35904B002230463946FCF718
:1041A00073F883A3D3E90023FCF726FA82A3D3E9AB
:1041B0000023FCF76BF8064628460F46FCF7B2F9D9
:1041C0007FA3D3E90023FCF717FA02460B463046DB
:1041D0003946FCF75BF806460F46FCF7BDFC0022AB
:1041E0008146002330463946FCF778FC48B1484602
:1041F000FCF798F932463B46FCF766FC08B909F132
:10420000FF39B9F1160F56D8744B03EBC903D3E944
:104210000023DDE90A01FCF761FC00284DD009F11B
:10422000FF3900230E93129B5D1B6B1E049343BF4B
:104230000023C5F1010804934FF00008B9F1000F05
:104240003DDB049BCDF834904B440493002306934C
:10425000059B092B00F29A80052BC4BF043B0593F4
:10426000059BA3F10203CCBF00250125032B00F21F
:104270009980DFE803F02C7D7B89DDE912531D4432
:1042800005F23243202BC1BFC3F1400305F21240B7
:1042900009FA03F326FA00F0DABFC3F1200306FAA5
:1042A00003F01843FCF72EF901230646A1F1F87735
:1042B000013D10936FE70123B4E70E90B3E7C9F116
:1042C000000306930023A8EB09080D93C0E7002321
:1042D0000893099B002B00F385804FF0010BCDF86C
:1042E00004B05B46CDF824B0666A002272600422F6
:1042F00002F11400984271687AD9204600F0B6FDA8
:10430000636A30601B680093019B0E2B00F2F580FE
:10431000002D00F0F280B9F1000F7DDD2F4A09F089
:104320000F0302EBC30393ED007B19F4807F4FEA88
:104330002917B0EE478AF0EE678A5DD0284BDDE999
:104340000A01D3E90823FCF781FACDE9020107F05D
:104350000F070325224E002F50D1DDE9020153EC57
:10436000182BFCF773FACDE902016FE00123AFE7E8
:1043700000230893099B09EB030B0BF10103012BAD
:104380000193B8BF0123AFE70123F2E70125002322
:10439000059308954FF0FF3B0022CDF804B012239F
:1043A0000992A1E701230893F4E700BFAFF300806F
:1043B00061436F63A787D23FB3C8608B288AC63F2B
:1043C000FB799F501344D33F0000F07F4D5F0008FE
:1043D000445F0008215F00080000F83FE05F00082C
:1043E000B85F0008DDF824B0CDF804B05B467BE789
:1043F0000131716052007BE70225ABE7F90708D570
:1044000051EC180BD6E90023FCF7F6F841EC180B39
:1044100001357F1008369EE700F0AB80C9F1000639
:10442000AA4BAB4F06F00F0203EBC203D3E9002304
:10443000DDE90A01FCF7E0F8CDE9020136110023BD
:104440000225002E40F08A80002B8CD10E9B002B81
:1044500000F09180DDE902679E4B0022304639462C
:10446000FCF73CFB002800F08680019B002B00F04D
:104470008280BBF1000F3CDD09F1FF33079300227E
:10448000954B30463946FCF7B7F8CDE902010135C6
:10449000CDF830B0DDE902672846FCF743F8324634
:1044A0003B46FCF7A9F88D4B0022FBF7EFFEA1F18C
:1044B0005073CDE9020103930C9B002B60D1884B14
:1044C000002230463946FBF7DFFEDDE902230646CF
:1044D0000F46FCF721FB002840F09982DDE902211C
:1044E000304601F100433946FCF7F8FA002840F065
:1044F0008B82DDE90A23CDE90223139B002BC0F256
:104500005B81B9F10E0F00F35781704B03EBC903C8
:1045100093ED007B099BB0EE478AF0EE678A002B93
:1045200080F2E280019B002B00F3DE8040F06C8281
:104530006B4B51EC170B0022FCF75EF8DDE9022310
:10454000FCF7E0FA019E3746002840F04282009DC9
:10455000312305F8013B09F101093EE2F20705D5D7
:10456000D7E90023FCF748F8013501237610083716
:1045700067E702256AE7019BCDF81C900C9389E759
:1045800000990C980C9A514B9DED027B01440291CD
:104590000899B0EE478AF0EE678A03EBC20353E94D
:1045A0000223002945D04F490020FCF74FF953EC76
:1045B000182BFBF769FE009D41EC180B394630467D
:1045C000FCF7CAFA0C90FBF7ADFF02460B463046EB
:1045D0003946FBF759FE0C9B303305F8013B53EC91
:1045E000182B06460F46FCF779FA002865D13246AB
:1045F0003B4638490020FBF747FE53EC182BFCF7ED
:104600006DFA002840F0B880029B9D423FF471AFE4
:10461000314B51EC180B0022FBF7EEFF2E4B41EC17
:10462000180B002230463946FBF7E6FF06460F46D8
:10463000C4E751EC170BFBF7DFFF029B009D0C93C7
:1046400041EC180B39463046FCF786FA1190FBF71F
:1046500069FF02460B4630463946FBF715FE119BB3
:10466000303305F8013B029B9D4206460F464FF052
:10467000000225D11B4B51EC180BFBF707FE02463D
:104680000B4630463946FCF747FA002874D153EC04
:10469000182B14490020FBF7F7FD02460B46304665
:1046A0003946FCF71BFA00283FF423AF0C9D6B1E24
:1046B0000C9315F8013C302BF8D0DDF81C9049E044
:1046C000054BFBF799FF06460F46BBE7E05F000886
:1046D000B85F00080000F03F0000244000001C40CC
:1046E000000014400000E03FDDE90267009D53EC4C
:1046F000182B30463946FCF7A9F8FCF72DFA80460E
:10470000FBF710FF53EC182BFBF776FF02460B4626
:104710003046394608F13006FBF7B6FD05F8016B67
:10472000009E019FAE1BB74202460B4637D1FBF7F6
:10473000ADFD53EC182B06460F46FCF7EDF9C8B952
:1047400053EC182B30463946FCF7BEF910B118F07F
:10475000010F0FD12046514600F0BCFB00232B7007
:104760000F9B09F101001860219B002B3FF4D7AC8F
:104770001D60D4E4CDF81C902B461D4613F8012D86
:10478000392A08D1009A9A42F7D1079A0099013242
:10479000079230220A701A7801321A708DE79E4B08
:1047A0000022FBF729FF0022002306460F46FCF7F4
:1047B0008BF900289BD0CDE7089A002A00F0C6802C
:1047C000059A012A00F3AA80109A002A00F0A2801C
:1047D00003F23343069E4546049A01211A442046BB
:1047E0009844049200F01BFC0746002D0BDD049B4F
:1047F000002B08DDAB42049AA8BF2B46A8EB0308A8
:10480000ED1AD31A0493069BFBB1089B002B00F012
:10481000A180002E11DD39463246204600F0A4FC6E
:10482000524601460746204600F002FC51460790DA
:10483000204600F04FFB079B9A46069B9A1B04D02C
:104840005146204600F090FC82460121204600F0AF
:10485000E6FB0D9B002B06467EDD1A4601462046F0
:1048600000F082FC059B012B064678DD00230693B1
:10487000336906EB8303186900F081FBC0F1200067
:10488000049B184410F01F0000F08880C0F1200342
:10489000042B40F38180C0F11C00049B034480443E
:1048A00005440493B8F1000F05DD51464246204609
:1048B00000F0A8FC8246049B002B05DD31461A4619
:1048C000204600F09FFC06460E9B002B68D0314628
:1048D000504600F0F6FC002862DA002351460A2216
:1048E000204600F00EFB089B09F1FF398246002BA1
:1048F00000F08881394600230A22204600F001FB9F
:10490000BBF1000F074600F38F80059B022B40F39D
:104910008B804DE0129BC3F136035BE7019B5E1E6B
:10492000069BB342BFBF069B0696F21A0D9BB6BF0D
:104930009B189E1B0D93019BB8BF0026002BB5BF93
:10494000A8EB0305019B0023454645E7069E089F0B
:1049500045464AE7069A73E7059B012B18DC029B44
:10496000B3B9039BC3F31303A3B9039B23F0004321
:104970001B0D1B052BB1049B0133049308F10108A7
:10498000012306930D9B002B7FF472AF012077E784
:104990000023F6E7029BF4E784D018461C307CE73E
:1049A000019B002B3ADC059B022B37DDDDF804B0C0
:1049B000BBF1000F0DD131465B460522204600F0C9
:1049C000A0FA01460646504600F07BFC00283FF75F
:1049D000BEAD099B009D6FEA03094FF00008314608
:1049E000204600F077FA002F3FF4B4AEB8F1000F84
:1049F00005D0B84503D04146204600F06BFA394651
:104A0000204600F067FAA5E600263746E1E70C9E4F
:104A1000DDF81C9037469AE500002440089BDDF83D
:104A200004B0002B00F0F580002D05DD39462A4644
:104A3000204600F0E7FB0746069B002B55D079681F
:104A4000204600F013FA3A6902320546920007F157
:104A50000C010C3000F0FCF901222946204600F040
:104A6000D1FB009B01330193009B5B440793029BA6
:104A700003F00103B84606930746019B31465046B2
:104A800003F1FF3BFFF774FA0346303302904146CF
:104A90005046089300F015FC3A46049031462046F3
:104AA00000F02BFCC268089B054602BB014650463D
:104AB00000F007FC089B024629462046CDE9083253
:104AC00000F008FA059B099A019D43EA0201069B42
:104AD0000B43089B0DD1392B27D0049A002A01DD06
:104AE000029B31338BF8003079E73846B9E7012271
:104AF000E2E70499002904DB059801430698014385
:104B000020D1002AEEDD514601222046019300F01B
:104B100079FB3146824600F0D4FB0028019B02DC81
:104B2000E0D1DA07DED5392BDAD139238BF8003022
:104B30002B461D46013B15F8012C392A50D0013275
:104B40001A704CE7002A03DD392BEED00133C9E798
:104B5000019A079902F8013C8A422AD05146002363
:104B60000A22204600F0CDF9B84582464FF00003F6
:104B70004FF00A024146204607D100F0C2F98046B4
:104B80000746019B0133019377E700F0BAF93946F4
:104B9000804600230A22204600F0B3F90746F0E7DA
:104BA000BBF1000F009ACCBF5D46012515444FF0C4
:104BB0000008514601222046019300F023FB3146B4
:104BC000824600F07EFB0028B2DC02D1019BDB07AD
:104BD000AED42B461D4613F8012D302AFAD0FEE63E
:104BE000009A9A42A5D1312309F101091370F6E622
:104BF000124BFFF7B5BA219B002B7FF48BAA104B09
:104C0000FFF7AEBABBF1000F03DC059B022B3FF7A9
:104C1000CFAE009D31465046FFF7AAF900F13003B0
:104C200005F8013B009AAA1A9345B9DD51460023C5
:104C30000A22204600F065F98246EBE7205F000873
:104C4000445F0008002310B50446C0E90033C0E902
:104C50000433836081814366C281836119460822DF
:104C60005C30FEF7FBFC054B6362054BA362054B12
:104C7000E362054B2462236310BD00BFCD580008DA
:104C8000EF580008275900084B590008014900F067
:104C9000AFB800BF255C000870B54A1E68255543B3
:104CA0000E4605F1740100F04DFC044640B10021B0
:104CB000C0E900160C30A06005F16802FEF7CEFCDA
:104CC000204670BD014800F0B8B800BFF0040020D5
:104CD000014800F0B3B800BFF0040020014800F024
:104CE000ACB800BFEB040020014800F0A7B800BF3B
:104CF000EB04002010B50446FFF7F0FFA3691BB1D9
:104D0000BDE81040FFF7F0BFC4E912332365134B31
:104D1000134A1B68A262A34204BF0123A361204679
:104D200000F020F86060204600F01CF8A0602046EB
:104D300000F018F80022E06004216068FFF782FFAD
:104D4000A06801220921FFF77DFFE06802221221FD
:104D5000FFF778FF0123A361D2E700BF0C5F0008D3
:104D60008D4C0008F8B50746FFF7ACFF1E4B1E68D8
:104D7000B36913B93046FFF7BDFF4836D6E90134B1
:104D8000013B03D533680BB33668F7E7B4F90C5031
:104D9000D5B9164BE36004F15800656600F04CF895
:104DA000FFF796FFC4E90155C4E904552560A561E4
:104DB0000822294604F15C00FEF750FCC4E90D55B9
:104DC000C4E912552046F8BD6834D9E704213846B5
:104DD000FFF762FF044630600028D5D1FFF778FF67
:104DE0000C233B60EEE700BF0C5F00080100FFFFF3
:104DF0002DE9F8430646884600F148040027D4E927
:104E00000195B9F1010905D52468002CF7D1384680
:104E1000BDE8F883AB89012B07D9B5F90E30013312
:104E200003D029463046C04707436835E9E700000C
:104E300000487047BC010020704770477047000071
:104E4000024B0146186800F07DBB00BF68000020DF
:104E50000A44914200F1FF3300D1704710B511F8B8
:104E6000014B03F8014F9142F9D110BD70B5466A6C
:104E700004460D463EB91020FFF7E2FFC0E9016687
:104E800060620660C660666AF36883B1636ADB6865
:104E900053F82500B8B9012101FA05F6721D9200F8
:104EA000204600F0F0FA60B1C0E901560EE0212280
:104EB0000421204600F0E7FA636AF060DB68002B0B
:104EC000E4D1002070BD026843F825200023C0E92A
:104ED0000333F7E770B5466A05460C463EB9102025
:104EE000FFF7AEFFC0E9016668620660C6603CB1CC
:104EF0006B6A6268DB6853F82210216043F8224035
:104F000070BD2DE9F0410E69074698460C4601F147
:104F1000140000230568A9B202FB01814FEA114C7D
:104F20002D0C02FB05C589B2013301EB05419E4200
:104F300040F8041B4FEA1548ECDCB8F1000F1BD019
:104F4000A368B34212DC616838460131FFF78EFF77
:104F50002269023204F10C01054692000C30FFF781
:104F600077FF21463846FFF7B5FF2C4604EB860352
:104F70000136C3F8148026612046BDE8F081030C99
:104F80001B04D3B90004102310F07F4F04BF0002AC
:104F9000083310F0704F04BF0001043310F0404F8D
:104FA00004BF80000233002805DB10F0804F03F1BE
:104FB000010308BF2023184670470023E4E7036875
:104FC00013F0070201460BD0DA0724D4980749BF33
:104FD0005B089B0801200B605CBF0B6002207047E0
:104FE00098B2B0B91B0C102013F0FF0F04BF1B0ABE
:104FF00008301A0704BF1B0904309A0704BF9B0836
:105000000230DA0703D45B0800F1010005D00B6021
:1050100070471046E8E7002070472020704710B521
:105020000C460121FFF722FF01224461026110BDFD
:105030002DE9F04F15460A692B699A42B8BF0B4615
:105040000C46BCBF2C461D462769D5F81090A368B6
:10505000616807EB0906B342B8BF013185B0FFF7BD
:1050600005FF00F1140101EB86080B4600224345C1
:105070001DD304F1140305F1140203EB870702EBBF
:10508000890302933B1B153B23F00303043304F114
:105090001505AF4238BF04230193029B039293424C
:1050A00008D8002E5ADC066105B0BDE8F08F43F841
:1050B000042BDCE7B2F800A0BAF1000F24D004F111
:1050C000140E89464FF0000C5EF8045BD9F800B06E
:1050D000ABB21FFA8BFB0AFB03B34FEA154BD9F8AF
:1050E000005063444FEA154C0AFB0BC505EB134512
:1050F0009BB243EA0543774549F8043B4FEA154C18
:10510000E2D8019B41F803C0039BB3F8029004323C
:10511000B9F1000F20D00B6804F1140C8E464FF04B
:10512000000ABCF80050BEF802B009FB05B5AA445D
:105130009BB243EA0A434EF8043B5CF8043BBEF8DA
:1051400000501B0C09FB035303EB1A4367454FEA5E
:10515000134AE6D8019D4B5104319EE758F8043DAF
:10516000002BA0D1013E9CE72DE9F843154612F033
:10517000030206460F4607D0214C013A002354F89B
:105180002220FFF7BEFE0746AD1035D0746A3CB949
:105190001020FFF755FEC0E9014470620460C4604E
:1051A000D6F82480D8F808404CB940F27121304636
:1051B000FFF735FF0023C8F80800044603604FF0EE
:1051C0000009EB070AD5394622463046FFF730FF83
:1051D000394680463046FFF77DFE47466D100BD0BE
:1051E000206838B9224621463046FFF721FF20606B
:1051F000C0F800900446E4E73846BDE8F88300BFF5
:10520000A86000082DE9F0470C464968236903EBC4
:105210006218A368074691464FEA621A08F1010630
:10522000B3423FDB3846FFF721FE0023054600F17D
:10523000140100F110021846534536DB20692AEAB2
:10524000EA7A04F1140319F01F0901EB8A0103EB58
:10525000800C2ED0C9F1200E8A460022186800FA70
:1052600009F002434AF8042B53F8042B9C4522FA18
:105270000EF2F3D8ACEB0403153B23F00303043325
:1052800004F11500604588BF0423CA500AB108F133
:105290000206013E38462E612146FFF71BFE2846D6
:1052A000BDE8F08701315B00BAE742F8040F013333
:1052B000C2E7043953F8042B41F8042F9C45F9D870
:1052C000E7E730B502690C69121B0ED100F1140337
:1052D000143103EB840001EB840150F8045D51F8B4
:1052E000044DA54203D005D30122104630BD8342B0
:1052F000F3D3FAE74FF0FF32F7E72DE9F84F0C460A
:105300000646114620461746FFF7DBFF051E08D16B
:1053100029463046FFF7AAFD0123C0E90435BDE860
:10532000F88FA4BF3B46274630467968A6BF1C4687
:1053300000250125FFF79AFD3E69C560256907F143
:10534000140104F1140900F1140E07F1100201EB2D
:10535000860C09EB8505F246002759F8043B52F804
:1053600004BF1FFA83F817FA8BF71B0CA7EB08088A
:10537000C3EB1B4303EB28431FFA88F81F144D456A
:1053800048EA03434AF8043BE7D82B1B153B23F0BC
:10539000030304331534A54238BF0423194473446E
:1053A0009E460D4665450ED30CF10302521A22F0BB
:1053B000030203398C4538BF00221A4452F8043DD9
:1053C0007BB10661ABE755F8048B17FA88F4221419
:1053D00002EB1842A4B244EA02444EF8044B1714FC
:1053E000E0E7013EEAE72DE9F7438946012157EC62
:1053F000106B9046FFF73AFDC7F30A550446C7F312
:10540000130335BB002E019328D068460096FFF7A2
:10541000D6FD009900B3019AC0F1200302FA03F30C
:105420000B43C24063610192019BA361002B14BF37
:10543000022201222261D5B1A5F233450544C9F803
:105440000050C0F13500C8F80000204603B0BDE8A8
:10545000F08343F48013D5E76161E5E701A8FFF726
:10546000AEFD019B6361012222612030E3E704EB82
:105470008203A0F23240C9F800001869FFF77FFDEF
:10548000C0EB4210DFE713B54A431146019200F02A
:1054900059F8044618B1019A0021FEF7DFF82046BA
:1054A00002B010BD37B5002948D051F8043C019036
:1054B000002BA1F10404B8BFE41800F077FC204AE7
:1054C00001981368154633B96360146003B0BDE8F2
:1054D000304000F071BCA3420BD92168621893429E
:1054E00004BF1A685B68636004BF521822602C60B6
:1054F000ECE71A465B680BB1A342FAD9116855185C
:10550000A5420BD1246821445418A3421160DDD177
:105510001C685B68536021441160D7E702D90C23F3
:105520000360D3E7256861198B4204BF19685B6883
:10553000636004BF491921605460C7E703B030BD00
:1055400018030020F8B5CD1C25F0030508350C2DF7
:1055500038BF0C25002D064601DBA94203D90C23D8
:1055600033600020F8BD00F021FC21490A68144690
:105570009CB9204F3B6823B92146304600F096F98C
:1055800038602946304600F091F9431C23D10C23A2
:105590003360304600F010FCE3E723685B1B17D450
:1055A0000B2B03D923601C44256004E06368A242EE
:1055B0000CBF0B605360304600F0FEFB04F10B00A3
:1055C000231D20F00700C21ACCD01B1AA350C9E734
:1055D00022466468CCE7C41C24F00304A042E3D054
:1055E000211A304600F062F90130DDD1CFE700BF6B
:1055F000180300201C0300209368013B002B10B40B
:10560000936008DA9469A34201DB0A2903D15DF8AB
:10561000044B00F09FB91368581C106019700846BD
:105620005DF8044B7047F8B506460F461446D5188A
:10563000AC4201D1002007E014F8011B3A46304685
:10564000FFF7DAFF431CF3D1F8BD00002DE9F04F5E
:105650000D469DB014469846064618B183690BB9AD
:10566000FFF748FB894B9D421BD175686B6ED907CC
:1056700005D4AB899A0502D4A86DFFF7DEFBAB8990
:105680001B0701D52B69EBB92946304600F0C6F956
:10569000C0B16B6EDC070ED54FF0FF301DB0BDE81A
:1056A000F08F7B4B9D4201D1B568DFE7794B9D427E
:1056B00008BFF568DAE7AB899805EDD4A86DFFF768
:1056C000BDFBE9E70023099320238DF82930CDF8AD
:1056D0000C803023DFF8C0818DF82A304FF00109AB
:1056E00023469A4613F8012B0AB1252AF9D1BAEBC1
:1056F000040B0BD05B46224629463046FFF793FF4A
:10570000013000F0AA80099A5A4409929AF80030B0
:10571000002B00F0A28000234FF0FF32CDE90523DB
:105720000AF1010A049307938DF853301A935446F3
:10573000052214F8011B5848FAF752FD049AD8B90B
:10574000D10644BF20238DF85330130744BF2B23C9
:105750008DF853309AF800302A2B15D0079A54460A
:1057600000204FF00A0C214611F8013B303B092B79
:105770004ED9B0B1079214E0A0EB080309FA03F385
:1057800013430493A246D2E7039B191D1B680391A0
:10579000002BBBBF5B4242F0020207930793B8BFE6
:1057A000049223782E2B0CD163782A2B35D1039BBE
:1057B0001A1D1B680392002BB8BF4FF0FF33023451
:1057C0000593DFF8E4A0217803225046FAF708FD9C
:1057D00040B14023A0EB0A0003FA00F0049B03430E
:1057E0000134049314F8011B2C488DF8281006226C
:1057F000FAF7F6FC00283FD0294B1BBB039B07336D
:1058000023F0070308330393099B3B44099367E79D
:105810000CFB02320C460120A5E70023013405935E
:1058200019464FF00A0C204610F8012B303A092A8D
:1058300003D9002BC5D00591C3E70CFB0121044619
:105840000123F0E703AB00932A46164B04A9304628
:10585000FDF7ACFF0746781CD6D16B6ED90705D48F
:10586000AB899A0502D4A86DFFF7E8FAAB895B060D
:105870003FF512AF099811E703AB00932A46094B95
:1058800004A93046FEF736FAE4E700BF745F00086B
:10589000945F0008545F0008B4600008BE60000810
:1058A000AD37000827560008BA60000838B5064D25
:1058B0000023044608462B6000F0EEFA431C02D198
:1058C0002B6803B1236038BDF404002010B50C46EA
:1058D000B1F90E1000F076FA0028ABBF636DA38912
:1058E0001B1823F48053ACBF6365A38110BD2DE961
:1058F000F0411F468B89DB0505460C46164605D54B
:10590000B1F90E100223002200F0C8F9A389B4F9FE
:105910000E1023F48053A38132463B462846BDE84F
:10592000F04100F069B810B50C46B1F90E1000F066
:10593000B5F9431CA38915BF606523F4805343F474
:105940008053A38118BFA38110BDB1F90E1000F0E0
:10595000D3B80000F8B50E461446054618B1836961
:105960000BB9FFF7C7F9214B9C422BD16C68A36997
:10597000A360A3891A072FD523696BB32369206815
:10598000C01A6369F6B28342374604DC21462846D2
:1059900000F048F930BBA368013BA36023685A1CA0
:1059A00022601E7063690130834204D0A389DB0743
:1059B00006D50A2E04D12146284600F033F988B9CD
:1059C0003846F8BD0A4B9C4201D1AC68CFE7094B81
:1059D0009C4208BFEC68CAE72146284600F01EF842
:1059E0000028CBD04FF0FF37EAE700BF745F000814
:1059F000945F0008545F000838B5074D0446084618
:105A0000114600222A601A46FBF7C0FA431C02D155
:105A10002B6803B1236038BDF4040020324B70B50D
:105A20001D6806460C4625B1AB6913B92846FFF739
:105A300061F92E4B9C420FD16C68A389B4F90C20FC
:105A400019072CD4DD0611D40923336042F040033A
:105A5000A3814FF0FF303EE0254B9C4201D1AC6862
:105A6000EBE7244B9C4208BFEC68E6E7580712D5E9
:105A7000616B41B104F14403994202D03046FFF713
:105A800011FD00236363A38923F02403A381002372
:105A9000636023692360A38943F00803A38123691A
:105AA0004BB9A38903F42073B3F5007F03D02146DB
:105AB000304600F029F9A089B4F90C2010F0010358
:105AC0000AD00023A36063695B42A361236943B9E1
:105AD00010F08000BAD170BD810758BF6369A36020
